:100000000C943A000C9496020C9496020C9496026E
:100010000C9496020C9496020C9496020C94960200
:100020000C9496020C9496020C9496020C944E0238
:100030000C9496020C9496020C94D2000C949602A6
:100040000C9496020C9496020C9496020C949602D0
:100050000C9496020C9496020C9496020C949602C0
:100060000C9496020C9496020100017600053A0168
:1000700076017C8011241FBECFEFD8E0DEBFCDBF5C
:10008000E8E6F0E040E017C0B591A59135912591E3
:10009000059107FD0CC095918591EF01F92FE82F8F
:1000A00005900D92A217B307D9F7FE0104C01D9267
:1000B000A217B307E1F7E437F40731F70E94D40140
:0800C0000C947102F894FFCFCB
:1000C8000F931F93CF93DF93CDB7DEB7C255D109F6
:1000D8000FB6F894DEBF0FBECDBF82E5E0E0F1E0D9
:1000E8008E010F5F1F4FD80101900D928A95E1F79D
:1000F8008CE291E00E9404025B988BE490E00E94FD
:1001080004022A9A8BE490E00E9404025A9A8BE433
:1001180090E00E9404025B9A8BE490E00E94040243
:10012800B80180E822E030E040E050E00E9415018C
:100138008BE490E00E940402BE016B5F7F4F80E871
:100148002AE030E040E050E00E9415018BE490E0A6
:100158000E940402BE01675E7F4F80E827E130E01D
:1001680040E050E00E9415018BE490E00E940402F8
:10017800BE01695B7F4F80E826E030E040E050E058
:100188000E941501CE5ADF4F0FB6F894DEBF0FBE9E
:0C019800CDBFDF91CF911F910F91089512
:1001A4001F920F920FB60F9211242F933F934F93E8
:1001B4005F936F937F938F939F93AF93BF93EF93CB
:1001C400FF93499B02C019990EC080917B01803531
:1001D40030F480917B018F5F80937B0108C081E0C4
:1001E40080937A0104C010927B0110927A0180916D
:1001F4007A01813039F4499903C00E94560102C042
:100204000E949501FF91EF91BF91AF919F918F91C2
:100214007F916F915F914F913F912F910F900FBEFE
:060224000F901F901895D9
:10022A004F925F926F927F928F929F92AF92BF92FC
:10023A00CF92DF92EF92211531054105510529F13F
:10024A0029013A01C62ED72EE82E812C912C540171
:10025A005A9AF6015E2D0E947C02872F0E94840220
:10026A00F6018491E7FC80810E9484025A988FEFFC
:10027A00881A980AA80AB80A92E0C90ED11CE11C89
:10028A00481459046A047B0419F7EF90DF90CF9061
:10029A00BF90AF909F908F907F906F905F904F909C
:0202AA000895B5
:1002AC00CF93DF930E94360280916E0190916F0183
:1002BC00813022E19207D0F02091700130917101D0
:1002CC002F3045E1340790F0EAE6F1E00197958391
:1002DC0084832150310937832683BF0180E826E0CF
:1002EC0030E040E050E00E94150113C06EE571E073
:1002FC0080E826E030E040E050E00E94150109C0A3
:10030C0087E00E94840280EE0E9484022197C1F74C
:0E031C0003C0CCE2D1E0F4CFDF91CF91089581
:10032A00CF93DF930E94360280916E0190916F0104
:10033A00853722E19207D0F4209170013091710142
:10034A00233845E1340790F4EAE6F1E00196958313
:10035A0084832F5F3F4F37832683BF0180E826E0DF
:10036A0030E040E050E00E94150113C062E571E000
:10037A0080E826E030E040E050E00E94150109C024
:10038A0087E00E94840280EE0E9484022197C1F7CE
:0E039A0003C0CCE2D1E0F4CFDF91CF91089503
:1003A8002198299A5198599A8AB18C608AB90E94E1
:1003B80060020E948B0278940E946400C0ECDAE527
:1003C8008FEF0E94840280EE0E9484022197C1F779
:1003D8006AE671E080E826E030E040E050E00E9404
:1003E8001501CCE2D1E087E00E94840280EE0E94F1
:1003F80084022197C1F70E9491020E941E02FFCF3A
:10040800F894209178013091790130937701209305
:1004180076017894F8942091780130917901789454
:100428004091760150917701241B350B2817390725
:0404380088F30895A8
:10043C007894EEE6F0E080818260808384B58260FF
:10044C0084BD84B58E7F84BD85B5877F85BD8AEFDD
:10045C0087BD85B5836085BD85B58B7F85BD0895CA
:10046C00CF93DF936AE671E080E826E030E040E06D
:10047C0050E00E941501CCE2D1E08FEF0E94840283
:10048C0080EE0E9484022197C1F7DF91CF910895ED
:10049C008F938FB78F939F9380917801909179016F
:1004AC00019690937901809378019F918F918FBFE2
:0404BC008F9118956F
:1004C000E1E8F0E0808189608083EFE6F0E0808100
:1004D000826080838FE79EE39093890080938800F9
:0204E00008957D
:1004E200EC010E949B020E949A02CE010E949C0291
:0604F200CE010E949802F9
:1004F80057FD03C0659175910895619171910895B3
:0E0508002A988EBD0DB407FEFDCF2A9A0895E5
:0C05160084B18C6284B980E58CBD08952E
:0A05220051982198599A299A0895DA
:04052C000C9400002B
:040530000E946200C3
:02053400089528
:02053600089526
:02053800089524
:10053A00FDFDFDFD00EF04EE041BFEFEFEFE90EF46
:10054A00044A3F7F04EE064390EF83090008AF0B8D
:10055A00000A00050006000700EF0CEE90EF80008D
:10056A00B0EF024900EF017F81E102E276E283E126
:10057A00018090EF000008EF0018001283150013A5
:02058A00AF16AA
:0C058C0008EF0018751283155A136D1645
:0C05980008EF001800120E155A136D1623
:0C05A40008EF0018231231155A136D16D1
:00000001FF
